{
  "contractName": "theOtherProj",
  "abi": [
    {
      "inputs": [],
      "name": "storeDate",
      "outputs": [],
      "stateMutability": "nonpayable",
      "type": "function"
    },
    {
      "inputs": [
        {
          "internalType": "uint256",
          "name": "a",
          "type": "uint256"
        }
      ],
      "name": "storeData2",
      "outputs": [],
      "stateMutability": "nonpayable",
      "type": "function"
    },
    {
      "inputs": [],
      "name": "showData",
      "outputs": [
        {
          "internalType": "uint256",
          "name": "",
          "type": "uint256"
        }
      ],
      "stateMutability": "view",
      "type": "function",
      "constant": true
    }
  ],
  "bytecode": "0x60806040526000805534801561001457600080fd5b5061016f806100246000396000f3fe608060405234801561001057600080fd5b50600436106100415760003560e01c80635492bcb514610046578063af40a98f14610062578063bca02ea81461006c575b600080fd5b610060600480360381019061005b91906100bc565b61008a565b005b61006a610094565b005b61007461009e565b60405161008191906100f8565b60405180910390f35b8060008190555050565b6063600081905550565b60008054905090565b6000813590506100b681610122565b92915050565b6000602082840312156100d2576100d161011d565b5b60006100e0848285016100a7565b91505092915050565b6100f281610113565b82525050565b600060208201905061010d60008301846100e9565b92915050565b6000819050919050565b600080fd5b61012b81610113565b811461013657600080fd5b5056fea264697066735822122077a0e4d51e5051add1bd8ce58aded39034e2344ce2a825c998f4c2aa68cc9c4764736f6c63430008070033",
  "immutableReferences": {},
  "source": "//SPDX-License-Identifier: GPL-3.0\r\npragma solidity = 0.8.7;\r\n\r\ncontract theOtherProj{ \r\n    \r\n    uint private Number = 0;\r\n\r\n    function storeDate() public {\r\n        \r\n        Number=99;\r\n    }\r\n\r\n    function storeData2(uint a) public {\r\n\r\n        Number = a;\r\n    }\r\n\r\n    function showData() public view returns(uint) {\r\n\r\n        return Number;\r\n    }\r\n}",
  "sourcePath": "E:\\SHARED\\GitHub\\dApp-etherium-bootcamp\\dApp-example\\another-example\\contracts\\theOtherProj.sol",
  "compiler": {
    "name": "solc",
    "version": "0.8.7+commit.e28d00a7.Emscripten.clang"
  },
  "schemaVersion": "3.4.10",
  "updatedAt": "2022-09-30T11:11:00.823Z",
  "networkType": "ethereum",
  "devdoc": {
    "kind": "dev",
    "methods": {},
    "version": 1
  },
  "userdoc": {
    "kind": "user",
    "methods": {},
    "version": 1
  }
}